{
  "transactions": [
    {
      "hash": "0x14e3a2c8d78c3f10bc2917606fd073fbd376222e811b7726d5471c0eba46e3f6",
      "transactionType": "CALL",
      "contractName": null,
      "contractAddress": "0xFAEC032f2E8c85Da9d04b06947a6BdCf02Ad7a71",
      "function": "faucet(uint256)",
      "arguments": [
        "1000000000"
      ],
      "transaction": {
        "from": "0x5c24d44ea5c8324f71b5147d9aac500a90526750",
        "to": "0xFAEC032f2E8c85Da9d04b06947a6BdCf02Ad7a71",
        "gas": "0x8c231bb",
        "value": "0x0",
        "input": "0x57915897000000000000000000000000000000000000000000000000000000003b9aca00",
        "nonce": "0x4",
        "chainId": "0x138b"
      },
      "additionalContracts": [],
      "isFixedGasLimit": false
    },
    {
      "hash": "0x2ceca943950860d9be897c6962a39671cd9d561a6b9dc3437233579371148c1c",
      "transactionType": "CALL",
      "contractName": null,
      "contractAddress": "0x8B87E271FB390FE7db2CE154e49096f72f6BE507",
      "function": "createFlightMarket(string,string,string,string,uint256,uint256)",
      "arguments": [
        "TEST123",
        "JFK",
        "LAX",
        "AA",
        "1766795077",
        "0"
      ],
      "transaction": {
        "from": "0x5c24d44ea5c8324f71b5147d9aac500a90526750",
        "to": "0x8B87E271FB390FE7db2CE154e49096f72f6BE507",
        "gas": "0x408f660d",
        "value": "0x0",
        "input": "0x860ebf5800000000000000000000000000000000000000000000000000000000000000c000000000000000000000000000000000000000000000000000000000000001000000000000000000000000000000000000000000000000000000000000000140000000000000000000000000000000000000000000000000000000000000018000000000000000000000000000000000000000000000000000000000694f274500000000000000000000000000000000000000000000000000000000000000000000000000000000000000000000000000000000000000000000000000000007544553543132330000000000000000000000000000000000000000000000000000000000000000000000000000000000000000000000000000000000000000034a464b000000000000000000000000000000000000000000000000000000000000000000000000000000000000000000000000000000000000000000000000034c4158000000000000000000000000000000000000000000000000000000000000000000000000000000000000000000000000000000000000000000000000024141000000000000000000000000000000000000000000000000000000000000",
        "nonce": "0x5",
        "chainId": "0x138b"
      },
      "additionalContracts": [],
      "isFixedGasLimit": false
    },
    {
      "hash": "0xaa35b132249ce04cb392b6430c7c4a62b7c1c12e96009c24022fe6b3b0565255",
      "transactionType": "CALL",
      "contractName": null,
      "contractAddress": "0x8B87E271FB390FE7db2CE154e49096f72f6BE507",
      "function": "commitBet(bytes32,bytes32)",
      "arguments": [
        "0x5d5940f45fe93978443f409238669b0814523817025423601403039dbe1be323",
        "0x1b43c7797416d8251b1cbf87e9efeaad73058ee9f07bfdb42a729ced9817ef6f"
      ],
      "transaction": {
        "from": "0x5c24d44ea5c8324f71b5147d9aac500a90526750",
        "to": "0x8B87E271FB390FE7db2CE154e49096f72f6BE507",
        "gas": "0x1cd49",
        "value": "0x0",
        "input": "0x29c233eb5d5940f45fe93978443f409238669b0814523817025423601403039dbe1be3231b43c7797416d8251b1cbf87e9efeaad73058ee9f07bfdb42a729ced9817ef6f",
        "nonce": "0x6",
        "chainId": "0x138b"
      },
      "additionalContracts": [],
      "isFixedGasLimit": false
    },
    {
      "hash": "0xa57dc2a48f9a166e45ae9ac6f196c5494ae183967459180f96529353d3e40c47",
      "transactionType": "CALL",
      "contractName": null,
      "contractAddress": "0xFAEC032f2E8c85Da9d04b06947a6BdCf02Ad7a71",
      "function": "approve(address,uint256)",
      "arguments": [
        "0x8B87E271FB390FE7db2CE154e49096f72f6BE507",
        "100000000"
      ],
      "transaction": {
        "from": "0x5c24d44ea5c8324f71b5147d9aac500a90526750",
        "to": "0xFAEC032f2E8c85Da9d04b06947a6BdCf02Ad7a71",
        "gas": "0xc00eb4f",
        "value": "0x0",
        "input": "0x095ea7b30000000000000000000000007ef4d7a1d410b4b3bf1b55d7f299bcd610c2524d0000000000000000000000000000000000000000000000000000000005f5e100",
        "nonce": "0x7",
        "chainId": "0x138b"
      },
      "additionalContracts": [],
      "isFixedGasLimit": false
    },
    {
      "hash": "0x34d8f06a8b5861b354d45879e1b53e73dcdf51e8a9a2e58c78f7187f0bc90a5d",
      "transactionType": "CALL",
      "contractName": null,
      "contractAddress": "0x8B87E271FB390FE7db2CE154e49096f72f6BE507",
      "function": "placeBet(bytes32,uint8,uint8,uint256,bytes32)",
      "arguments": [
        "0x5d5940f45fe93978443f409238669b0814523817025423601403039dbe1be323",
        "1",
        "0",
        "100000000",
        "0xd9b38e369f6b77fc876f335b1aa01c3c42cf2fb0a1cde042e5be55c0593e15a7"
      ],
      "transaction": {
        "from": "0x5c24d44ea5c8324f71b5147d9aac500a90526750",
        "to": "0x8B87E271FB390FE7db2CE154e49096f72f6BE507",
        "gas": "0x875be",
        "value": "0x0",
        "input": "0xbdad3c6d5d5940f45fe93978443f409238669b0814523817025423601403039dbe1be323000000000000000000000000000000000000000000000000000000000000000100000000000000000000000000000000000000000000000000000000000000000000000000000000000000000000000000000000000000000000000005f5e100d9b38e369f6b77fc876f335b1aa01c3c42cf2fb0a1cde042e5be55c0593e15a7",
        "nonce": "0x8",
        "chainId": "0x138b"
      },
      "additionalContracts": [],
      "isFixedGasLimit": false
    }
  ],
  "receipts": [
    {
      "status": "0x1",
      "cumulativeGasUsed": "0x592aa48",
      "logs": [
        {
          "address": "0xFAEC032f2E8c85Da9d04b06947a6BdCf02Ad7a71",
          "topics": [
            "0xddf252ad1be2c89b69c2b068fc378daa952ba7f163c4a11628f55a4df523b3ef",
            "0x0000000000000000000000000000000000000000000000000000000000000000",
            "0x0000000000000000000000005c24d44ea5c8324f71b5147d9aac500a90526750"
          ],
          "data": "0x000000000000000000000000000000000000000000000000000000003b9aca00",
          "blockHash": "0x7d235e799991eee78d32ec1415264c7ce20586a40a16e563a9ccc4e2b941977c",
          "blockNumber": "0x1f1c436",
          "blockTimestamp": "0x694f0b4d",
          "transactionHash": "0x14e3a2c8d78c3f10bc2917606fd073fbd376222e811b7726d5471c0eba46e3f6",
          "transactionIndex": "0x1",
          "logIndex": "0x0",
          "removed": false
        }
      ],
      "logsBloom": "0x00000000000000020000000000000000000040000000000000000000000000000000000000000000000000000000000000000000000000000000000000000000000000000002000000000008000000000000000000000000000000000000000000000000020000000000000000000800000000000000000000000010000000000800000000000000000000000000000000000000000000000000004000000000000000000000000000000000000020000000000000000000000000000000000000000002000000000000000000000000000000000000000000000000000020000000000000000000000000000000000000000000000000000000000000000000",
      "type": "0x2",
      "transactionHash": "0x14e3a2c8d78c3f10bc2917606fd073fbd376222e811b7726d5471c0eba46e3f6",
      "transactionIndex": "0x1",
      "blockHash": "0x7d235e799991eee78d32ec1415264c7ce20586a40a16e563a9ccc4e2b941977c",
      "blockNumber": "0x1f1c436",
      "gasUsed": "0x591f34f",
      "effectiveGasPrice": "0x1312d01",
      "from": "0x5c24d44ea5c8324f71b5147d9aac500a90526750",
      "to": "0xFAEC032f2E8c85Da9d04b06947a6BdCf02Ad7a71",
      "contractAddress": null,
      "l1Fee": "0x9c3660",
      "l1FeeScalar": "0.01",
      "l1GasPrice": "0xaa",
      "l1GasUsed": "0x870",
      "tokenRatio": "0xae4"
    },
    {
      "status": "0x1",
      "cumulativeGasUsed": "0x290fc42a",
      "logs": [
        {
          "address": "0x8B87E271FB390FE7db2CE154e49096f72f6BE507",
          "topics": [
            "0x4c419e8b68c376bd288769f564f60006c6a3fa60237c4660537aaf841e7e1b30",
            "0x5d5940f45fe93978443f409238669b0814523817025423601403039dbe1be323"
          ],
          "data": "0x000000000000000000000000000000000000000000000000000000000000008000000000000000000000000000000000000000000000000000000000694f274500000000000000000000000000000000000000000000000000000000694f203d0000000000000000000000000000000000000000000000000000000005f5e10000000000000000000000000000000000000000000000000000000000000000075445535431323300000000000000000000000000000000000000000000000000",
          "blockHash": "0xc8ffc9ab242e6193b17ffe45f258d65865ae3dc9a46dce55baed6569cccae4f8",
          "blockNumber": "0x1f1c43a",
          "blockTimestamp": "0x694f0b55",
          "transactionHash": "0x2ceca943950860d9be897c6962a39671cd9d561a6b9dc3437233579371148c1c",
          "transactionIndex": "0x1",
          "logIndex": "0x0",
          "removed": false
        }
      ],
      "logsBloom": "0x00000000000000000000080000000000000000000000000000000000000000000000000000000000000000000800000000000004000008000000000000000000000000000000000000000000000000000000080000800000000000000200000000000000000000000000000000000000000000000000000000000000000000000000000000000000000000000000000000000000000000000000000000080000000000000000000000000000000000000000000000000000000800000000000000000000000000000000000000000000000000000000000000000000000000000000000000000000000000000000000000000000000000000000000000000000",
      "type": "0x2",
      "transactionHash": "0x2ceca943950860d9be897c6962a39671cd9d561a6b9dc3437233579371148c1c",
      "transactionIndex": "0x1",
      "blockHash": "0xc8ffc9ab242e6193b17ffe45f258d65865ae3dc9a46dce55baed6569cccae4f8",
      "blockNumber": "0x1f1c43a",
      "gasUsed": "0x290f0d31",
      "effectiveGasPrice": "0x1312d01",
      "from": "0x5c24d44ea5c8324f71b5147d9aac500a90526750",
      "to": "0x8B87E271FB390FE7db2CE154e49096f72f6BE507",
      "contractAddress": null,
      "l1Fee": "0x11e91dd",
      "l1FeeScalar": "0.01",
      "l1GasPrice": "0xa1",
      "l1GasUsed": "0x1058",
      "tokenRatio": "0xae4"
    },
    {
      "status": "0x1",
      "cumulativeGasUsed": "0xd6c0597",
      "logs": [
        {
          "address": "0x8B87E271FB390FE7db2CE154e49096f72f6BE507",
          "topics": [
            "0x6cd4c4f2941d5249c9b125df67630c6fb112156cee36f3546525f2d6adb5b747",
            "0x5d5940f45fe93978443f409238669b0814523817025423601403039dbe1be323",
            "0x0000000000000000000000005c24d44ea5c8324f71b5147d9aac500a90526750"
          ],
          "data": "0x1b43c7797416d8251b1cbf87e9efeaad73058ee9f07bfdb42a729ced9817ef6f00000000000000000000000000000000000000000000000000000000694f0b5d",
          "blockHash": "0xa24466816330d8277f1bb2ad43c915e6c22a791816f77693e072ffbb1c0ec2ca",
          "blockNumber": "0x1f1c43e",
          "blockTimestamp": "0x694f0b5d",
          "transactionHash": "0xaa35b132249ce04cb392b6430c7c4a62b7c1c12e96009c24022fe6b3b0565255",
          "transactionIndex": "0x1",
          "logIndex": "0x0",
          "removed": false
        }
      ],
      "logsBloom": "0x00000000000000020000080000000000000000000000000000000000000000000000000000000000000000000800000000000000000000000000000000000000000000000002000000000000000000000000080000800000000000000200000000000000000000000000000000000000000000000000000000000000000000000100000000000000000000000008000000000000000000000000004000040000000000000000000000000000000000000000000000000000000800000000000000000000000000000000000000000000000000000000000000000000000000000000000000000000000000000000000000000000000000000000000000000000",
      "type": "0x2",
      "transactionHash": "0xaa35b132249ce04cb392b6430c7c4a62b7c1c12e96009c24022fe6b3b0565255",
      "transactionIndex": "0x1",
      "blockHash": "0xa24466816330d8277f1bb2ad43c915e6c22a791816f77693e072ffbb1c0ec2ca",
      "blockNumber": "0x1f1c43e",
      "gasUsed": "0xd6b0bd2",
      "effectiveGasPrice": "0x1312d01",
      "from": "0x5c24d44ea5c8324f71b5147d9aac500a90526750",
      "to": "0x8B87E271FB390FE7db2CE154e49096f72f6BE507",
      "contractAddress": null,
      "l1Fee": "0xd7b0c6",
      "l1FeeScalar": "0.01",
      "l1GasPrice": "0xa7",
      "l1GasUsed": "0xbdc",
      "tokenRatio": "0xae4"
    },
    {
      "status": "0x1",
      "cumulativeGasUsed": "0x7a3014c",
      "logs": [
        {
          "address": "0xFAEC032f2E8c85Da9d04b06947a6BdCf02Ad7a71",
          "topics": [
            "0x8c5be1e5ebec7d5bd14f71427d1e84f3dd0314c0f7b2291e5b200ac8c7c3b925",
            "0x0000000000000000000000005c24d44ea5c8324f71b5147d9aac500a90526750",
            "0x0000000000000000000000007ef4d7a1d410b4b3bf1b55d7f299bcd610c2524d"
          ],
          "data": "0x0000000000000000000000000000000000000000000000000000000005f5e100",
          "blockHash": "0x096d4afc8f531550c6b7e650094c978481afae2591b7af0749b6a09d2dc0e133",
          "blockNumber": "0x1f1c442",
          "blockTimestamp": "0x694f0b65",
          "transactionHash": "0xa57dc2a48f9a166e45ae9ac6f196c5494ae183967459180f96529353d3e40c47",
          "transactionIndex": "0x1",
          "logIndex": "0x0",
          "removed": false
        }
      ],
      "logsBloom": "0x00000000000000020000000000000000000040000000000000000000000000010000000000000000000000000000000000000000000000000000000000200000000000000102000000000000000000000000000000000000000000000000000000000000000000000000000000000000000000000000000000000000000000000800000000000000000000000000000000000000000000000000004000000000020000010000000000000000000020000000000000000000000000000000000000000000000000000000000000000000000000000000000000000000000000000010000000000000000000000000000000000000000000000000000000000000",
      "type": "0x2",
      "transactionHash": "0xa57dc2a48f9a166e45ae9ac6f196c5494ae183967459180f96529353d3e40c47",
      "transactionIndex": "0x1",
      "blockHash": "0x096d4afc8f531550c6b7e650094c978481afae2591b7af0749b6a09d2dc0e133",
      "blockNumber": "0x1f1c442",
      "gasUsed": "0x7a24a53",
      "effectiveGasPrice": "0x1312d01",
      "from": "0x5c24d44ea5c8324f71b5147d9aac500a90526750",
      "to": "0xFAEC032f2E8c85Da9d04b06947a6BdCf02Ad7a71",
      "contractAddress": null,
      "l1Fee": "0xb3e25a",
      "l1FeeScalar": "0.01",
      "l1GasPrice": "0xa7",
      "l1GasUsed": "0x9e4",
      "tokenRatio": "0xae4"
    },
    {
      "status": "0x1",
      "cumulativeGasUsed": "0x3f001ebd",
      "logs": [
        {
          "address": "0xFAEC032f2E8c85Da9d04b06947a6BdCf02Ad7a71",
          "topics": [
            "0xddf252ad1be2c89b69c2b068fc378daa952ba7f163c4a11628f55a4df523b3ef",
            "0x0000000000000000000000005c24d44ea5c8324f71b5147d9aac500a90526750",
            "0x0000000000000000000000007ef4d7a1d410b4b3bf1b55d7f299bcd610c2524d"
          ],
          "data": "0x0000000000000000000000000000000000000000000000000000000005f5e100",
          "blockHash": "0x8a28a3b0fba5252b7d4aff8956bd8371e5ce18472b2098f425182b63afa81b32",
          "blockNumber": "0x1f1c445",
          "blockTimestamp": "0x694f0b6b",
          "transactionHash": "0x34d8f06a8b5861b354d45879e1b53e73dcdf51e8a9a2e58c78f7187f0bc90a5d",
          "transactionIndex": "0x1",
          "logIndex": "0x0",
          "removed": false
        },
        {
          "address": "0x8B87E271FB390FE7db2CE154e49096f72f6BE507",
          "topics": [
            "0x0b4e8ccfc206dce545d11703d4cec9db291e1126890bbffe0270149eece201ff",
            "0x5d5940f45fe93978443f409238669b0814523817025423601403039dbe1be323",
            "0x0000000000000000000000005c24d44ea5c8324f71b5147d9aac500a90526750"
          ],
          "data": "0x00000000000000000000000000000000000000000000000000000000000000010000000000000000000000000000000000000000000000000000000000000000000000000000000000000000000000000000000000000000000000000c4b20100000000000000000000000000000000000000000000000000000000005f5e100",
          "blockHash": "0x8a28a3b0fba5252b7d4aff8956bd8371e5ce18472b2098f425182b63afa81b32",
          "blockNumber": "0x1f1c445",
          "blockTimestamp": "0x694f0b6b",
          "transactionHash": "0x34d8f06a8b5861b354d45879e1b53e73dcdf51e8a9a2e58c78f7187f0bc90a5d",
          "transactionIndex": "0x1",
          "logIndex": "0x1",
          "removed": false
        },
        {
          "address": "0x8B87E271FB390FE7db2CE154e49096f72f6BE507",
          "topics": [
            "0x7acfacbf49bc3e108d3f03d127aa6a7695af5267e78a5e5c5dfd254bcea9164e",
            "0x5d5940f45fe93978443f409238669b0814523817025423601403039dbe1be323"
          ],
          "data": "0x000000000000000000000000000000000000000000000000000000000c4b2010000000000000000000000000000000000000000000000000000000000000000000000000000000000000000000000000000000000000000000000000000000000000000000000000000000000000000000000000000000000000000000000000",
          "blockHash": "0x8a28a3b0fba5252b7d4aff8956bd8371e5ce18472b2098f425182b63afa81b32",
          "blockNumber": "0x1f1c445",
          "blockTimestamp": "0x694f0b6b",
          "transactionHash": "0x34d8f06a8b5861b354d45879e1b53e73dcdf51e8a9a2e58c78f7187f0bc90a5d",
          "transactionIndex": "0x1",
          "logIndex": "0x2",
          "removed": false
        }
      ],
      "logsBloom": "0x00000000000000020000080000000000000040000000002000000000000000010000000000000000000000000800000000000000000000000000000000000000000000000102000000000008000000000000080000800000000000000200000000000000000000000000000000000000000000000000000000000010000000000800000000000100008000000000000000000000000000000000004000000000000000010000000000000000000020000000000000000010000800000000000000000002000000000000000000000000000000000000001000008000000000000000000000000000000000000000000000000000000000000000000000000000",
      "type": "0x2",
      "transactionHash": "0x34d8f06a8b5861b354d45879e1b53e73dcdf51e8a9a2e58c78f7187f0bc90a5d",
      "transactionIndex": "0x1",
      "blockHash": "0x8a28a3b0fba5252b7d4aff8956bd8371e5ce18472b2098f425182b63afa81b32",
      "blockNumber": "0x1f1c445",
      "gasUsed": "0x3eff67c4",
      "effectiveGasPrice": "0x1312d01",
      "from": "0x5c24d44ea5c8324f71b5147d9aac500a90526750",
      "to": "0x8B87E271FB390FE7db2CE154e49096f72f6BE507",
      "contractAddress": null,
      "l1Fee": "0x1094ddb",
      "l1FeeScalar": "0.01",
      "l1GasPrice": "0xb3",
      "l1GasUsed": "0xd9c",
      "tokenRatio": "0xae4"
    }
  ],
  "libraries": [],
  "pending": [],
  "returns": {},
  "timestamp": 1766787949711,
  "chain": 5003,
  "commit": "7a68959"
}