{
  "transactions": [
    {
      "hash": "0x0096bdf6d0b13efe34975daa20c47760b4a7ef857c4249622ccc1664996de859",
      "transactionType": "CALL",
      "contractName": null,
      "contractAddress": "0x8b87e271fb390fe7db2ce154e49096f72f6be507",
      "function": "createFlightMarket(string,string,string,string,uint256,uint256)",
      "arguments": [
        "TEST456",
        "JFK",
        "LAX",
        "AA",
        "1766888821",
        "0"
      ],
      "transaction": {
        "from": "0x5c24d44ea5c8324f71b5147d9aac500a90526750",
        "to": "0x8b87e271fb390fe7db2ce154e49096f72f6be507",
        "gas": "0x4571620a",
        "value": "0x0",
        "input": "0x860ebf5800000000000000000000000000000000000000000000000000000000000000c0000000000000000000000000000000000000000000000000000000000000010000000000000000000000000000000000000000000000000000000000000001400000000000000000000000000000000000000000000000000000000000000180000000000000000000000000000000000000000000000000000000006950957500000000000000000000000000000000000000000000000000000000000000000000000000000000000000000000000000000000000000000000000000000007544553543435360000000000000000000000000000000000000000000000000000000000000000000000000000000000000000000000000000000000000000034a464b000000000000000000000000000000000000000000000000000000000000000000000000000000000000000000000000000000000000000000000000034c4158000000000000000000000000000000000000000000000000000000000000000000000000000000000000000000000000000000000000000000000000024141000000000000000000000000000000000000000000000000000000000000",
        "nonce": "0xb",
        "chainId": "0x138b"
      },
      "additionalContracts": [],
      "isFixedGasLimit": false
    }
  ],
  "receipts": [
    {
      "status": "0x1",
      "cumulativeGasUsed": "0x2c2ab637",
      "logs": [
        {
          "address": "0x8b87e271fb390fe7db2ce154e49096f72f6be507",
          "topics": [
            "0x4c419e8b68c376bd288769f564f60006c6a3fa60237c4660537aaf841e7e1b30",
            "0x7792f0c02f8503aa7653c7cac460c2c512e76b47f6100ee4c2e9e9883117b217"
          ],
          "data": "0x000000000000000000000000000000000000000000000000000000000000008000000000000000000000000000000000000000000000000000000000695095750000000000000000000000000000000000000000000000000000000069508e6d0000000000000000000000000000000000000000000000000000000005f5e10000000000000000000000000000000000000000000000000000000000000000075445535434353600000000000000000000000000000000000000000000000000",
          "blockHash": "0xe234657cbeed4eb4307f73535aa9af3fd507fcec1bd463abf5b63bf7328877cb",
          "blockNumber": "0x1f27b49",
          "blockTimestamp": "0x69507973",
          "transactionHash": "0x0096bdf6d0b13efe34975daa20c47760b4a7ef857c4249622ccc1664996de859",
          "transactionIndex": "0x1",
          "logIndex": "0x0",
          "removed": false
        }
      ],
      "logsBloom": "0x0000000000000000000000000000000000000000000000000000000000000000000000000000000000000004000000000000000c000008000000000000000000000000000000000000000000000000000000000000000000000000000000000000000000000000000000000000000000000000000002000000000000000000000000000000000000000001000000000000000000000000000000000000080000000008000000000000000000000000000000000000000000000000000000000000000000000000000000000000000000000000000000000000000000000000000000000000000000000000000000000000000000000000000000000000000040",
      "type": "0x2",
      "transactionHash": "0x0096bdf6d0b13efe34975daa20c47760b4a7ef857c4249622ccc1664996de859",
      "transactionIndex": "0x1",
      "blockHash": "0xe234657cbeed4eb4307f73535aa9af3fd507fcec1bd463abf5b63bf7328877cb",
      "blockNumber": "0x1f27b49",
      "gasUsed": "0x2c29ff3e",
      "effectiveGasPrice": "0x1700ac0",
      "from": "0x5c24d44ea5c8324f71b5147d9aac500a90526750",
      "to": "0x8b87e271fb390fe7db2ce154e49096f72f6be507",
      "contractAddress": null,
      "l1Fee": "0x13bd70",
      "l1FeeScalar": "0.01",
      "l1GasPrice": "0xb",
      "l1GasUsed": "0x1088",
      "tokenRatio": "0xadb"
    }
  ],
  "libraries": [],
  "pending": [],
  "returns": {},
  "timestamp": 1766881653634,
  "chain": 5003,
  "commit": "bf71586"
}